:020000040800F2
:100000003004002049010008C50F0008C70F000890
:10001000CB0F0008CF0F0008D30F0008000000002E
:10002000000000000000000000000000D70F0008E2
:10003000D90F000800000000DB0F0008DD0F0008EA
:100040006301000863010008630100086301000800
:1000500063010008630100086301000863010008F0
:1000600063010008630100086301000863010008E0
:1000700063010008630100086301000863010008D0
:1000800063010008630100086301000863010008C0
:1000900063010008630100086301000863010008B0
:1000A00063010008630100086301000863010008A0
:1000B0006301000863010008630100086301000890
:1000C0006301000863010008630100086301000880
:1000D0006301000863010008630100086301000870
:1000E0006301000863010008630100086301000860
:1000F0006301000863010008630100086301000850
:10010000630100086301000863010008630100083F
:10011000630100086301000863010008630100082F
:10012000630100086301000863010008630100081F
:10013000DFF810D001F02EFF00480047890F0008BB
:10014000AFF300803004002006488047064800478F
:10015000FEE7FEE7FEE7FEE7FEE7FEE7FEE7FEE777
:10016000FEE7FEE7A3020008310100081CB50020ED
:10017000019000908248006840F480308049086017
:1001800000BF7F48006800F4003000900198401CD8
:100190000190009818B90198B0F5A06FF1D1784896
:1001A000006800F4003010B10120009001E0002050
:1001B00000900098012844D17248006840F0100077
:1001C000704908600846006820F00300086008468F
:1001D000006840F00100086069484068684948606C
:1001E0000846406848600846406840F480604860BF
:1001F0000846406820F47C1048600846406840F497
:10020000881048600846006840F08070086000BFB1
:100210005B48006800F000700028F9D0584840683A
:1002200020F00300564948600846406840F002004C
:10023000486000BF5248406800F00C000828F9D11F
:100240002AE000F0CBFA012000F04DFB00BF212096
:1002500000F007FB0028FAD0002000F064FB00202B
:1002600000F073FB4FF4806000F066FB4FF4201148
:10027000002000F03BFB012000F044FB00BF3920D0
:1002800000F0EFFA0028FAD0022000F03EFB00BF99
:1002900000F044FB0828FBD11CBD10B5FFF766FF3A
:1002A00010BD10B53648006840F0010034490860C0
:1002B00008464068344908403149486008460068AB
:1002C000324908402E4908600846006820F4802022
:1002D00008600846406820F4FE0048604FF41F00A4
:1002E0008860FFF7DAFF4FF000602949086010BD11
:1002F00010B5002100200022214B5B6803F00C01A7
:1003000021B1042906D0082928D107E0214B224C2D
:10031000236027E01F4B204C236023E0184B5B68D1
:1003200003F47010164B5B6803F48032022303EB76
:10033000904022B9194B4343174C23600DE0104BFA
:100340005B6803F4003323B1144B4343124C236026
:1003500003E0104B4343104C236003E00D4B0E4C65
:10036000236000BF00BF064B5B68C3F303130C4C54
:10037000E15C094B1B68CB40074C236010BD0000BB
:1003800000100240002002400000FFF8FFFFF6FED0
:1003900008ED00E000127A000000002000093D0096
:1003A0000400002031490143314A1160704770B5A3
:1003B000002100230F22C47804B32D4C246804F4D8
:1003C000E064C4F5E064210AC1F10403CA40447842
:1003D00004FA03F18478144021430901254C06787E
:1003E000A155047804F01F050124AC4005786D1177
:1003F000AD0005F1E025C5F8004109E0047804F0FE
:100400001F050124AC401C4D0678761145F82640A6
:1004100070BD1A4A0A400243154B1B1F1A607047F1
:1004200039B1134A121D12680243114B1B1D1A6089
:1004300006E00F4A121D126882430D4B1B1D1A6005
:100440007047042808D14FF0E021096941F0040108
:100450004FF0E022116107E04FF0E021096921F03F
:1004600004014FF0E0221161704700000000FA051E
:100470000CED00E000E400E080E100E080FFFF1F01
:1004800010B50446CC48844208D10121042000F074
:100490002DFB0021042000F029FB46E0C7488442E0
:1004A00008D10121082000F021FB0021082000F0E4
:1004B0001DFB3AE0C248844208D10121102000F01F
:1004C00015FB0021102000F011FB2EE0BD488442F6
:1004D00008D10121202000F009FB0021202000F09C
:1004E00005FB22E0B848844208D10121402000F0F9
:1004F000FDFA0021402000F0F9FA16E0B3488442EA
:1005000008D10121802000F0F1FA0021802000F0C4
:10051000EDFA0AE0AE48844207D10121801500F0CF
:10052000E5FA0021A01500F0E1FA10BD10B5012197
:10053000084600F0DBFA0021012000F0D7FA10BDD8
:100540002DE9F0410246002500260020002300246A
:10055000002791F803C00CF00F0591F803C00CF0D0
:10056000100CBCF1000F03D091F802C04CEA050555
:1005700091F800C0BCF1000F31D0146800202BE0CE
:100580004FF0010C0CFA00F3B1F800C00CEA0306BE
:100590009E4220D183004FF00F0C0CFA03F7BC43AE
:1005A00005FA03FC4CEA040491F803C0BCF1280FDF
:1005B00006D14FF0010C0CFA00FCC2F814C00AE09E
:1005C00091F803C0BCF1480F05D14FF0010C0CFAB3
:1005D00000FCC2F810C0401C0828D1D31460B1F848
:1005E00000C0BCF1FF0F34DD546800202EE000F1A4
:1005F000080C4FF0010808FA0CF3B1F800C00CEA3F
:1006000003069E4221D183004FF00F0C0CFA03F732
:10061000BC4305FA03FC4CEA040491F803C0BCF1A6
:10062000280F05D100F1080C08FA0CF8C2F8148064
:1006300091F803C0BCF1480F07D100F1080C4FF04E
:10064000010808FA0CF8C2F81080401C0828CED324
:100650005460BDE8F0814FF6FF7101800221817086
:100660000421C17070470246002093680B400BB113
:10067000012000E0002070470146886880B2704782
:1006800002460020D3680B400BB1012000E000209F
:1006900070470146C86880B2704701617047416188
:1006A00070470AB1016100E041617047C160704765
:1006B0004FF480320A43826181618261826982697A
:1006C000704702460020434B18684FF6807318406D
:1006D00040EA021008433F4B186070473E49C8612A
:1006E0007047F0B50A46002300240021002500F0E1
:1006F0000046B6F1004F02D1364EF16901E0354EA9
:100700007168C0F3034583B200F44016B6F5401F8C
:1007100008D121F070612F4E766826F070662D4F5B
:100720007E6012E000F48016B6F5801F06D1032625
:1007300006FA05F4A14341F0706106E0460D36016A
:1007400003FA06F6B14341F0706122B1460D36015D
:1007500003FA06F6314300F00046B6F1004F02D12D
:100760001C4EF16101E01B4E7160F0BD30B50022FE
:100770008B071C0F0F2303FA04F2164B08338C105F
:1007800053F824309343134C08348D1044F825302B
:1007900023468C1053F824308C07240F00FA04F4FD
:1007A00023430C4C08348D1044F8253030BD0A49E1
:1007B000DC3108607047000000080140000C014077
:1007C000001001400014014000180140001C0140CD
:1007D000002001400000014000002042DF48006886
:1007E00040F00100DD49086008464068DC490840E7
:1007F000DA49486008460068DA490840D749086085
:100800000846006820F4802008600846406820F40C
:10081000FE0048604FF41F0088607047CF490968A8
:1008200021F48031CD4A11601146096821F48021FC
:100830001160B0F5803F03D0B0F5802F0ED106E0F7
:10084000C649096841F48031C44A116007E0C349D0
:10085000096841F4A021C14A116000E000BF00BF57
:10086000704710B501460022002300204A11012ADA
:1008700002D1BA4C236806E0022A02D1B74C236A9F
:1008800001E0B64C636A01F01F02012494401C4051
:100890000CB1012000E0002010BD38B50020009010
:1008A0000024002500BF3120FFF7DBFF054600983C
:1008B000401C00900098B0F5A06F01D0002DF2D040
:1008C0003120FFF7CEFF08B1012400E000242046CC
:1008D00038BD01460020A14A106820F0F80040EA27
:1008E000C10010607047A0490860704702460020B0
:1008F0009A4B586820F47C1042EA01031843974B46
:100900005860704798490866704701460020934A2E
:10091000506820F003000843506070478F484068DB
:1009200000F00C007047014600208C4A506820F00F
:10093000F00008435060704701460020874A506825
:1009400020F4E06008435060704701460020834A6D
:10095000506820F4605040EAC1005060704729B1EF
:100960007E4A527A02437D4B5A7204E07B4A527AA5
:1009700082437A4B5A7270477B49D831086070477E
:1009800001460020754A506820F4404008435060FA
:1009900070470021714A20321170704A82F820108D
:1009A000012802D004280AD104E001216B4A203238
:1009B000117005E00521694A2032117000E000BF86
:1009C00000BF70476949086070476449096A01437C
:1009D000624A11627047654944390860704730B512
:1009E00000210022002400235C4D6D6805F00C01FD
:1009F00021B1042905D0082923D105E05C4D05600B
:100A000022E05B4D05601FE0544D6D6805F47012E7
:100A1000524D6D6805F48034022505EB92421CB9F5
:100A2000544D554305600BE04C4D6D6805F40035A1
:100A30001DB1504D5543056002E04D4D55430560D5
:100A400002E04B4D056000BF00BF444D6D6805F0EE
:100A5000F0010909484D6B5C0568DD4045603F4D7C
:100A60006D6805F4E061090A434D6B5C4568DD4043
:100A700085603A4D6D6805F46051C90A3E4D6B5C66
:100A80004568DD40C560354D6D6805F44041890B12
:100A90003A4D6B5CC568B5FBF3F5056130BD29B116
:100AA0002E4A526902432D4B5A6104E02B4A526987
:100AB00082432A4B5A61704729B1284A92690243FE
:100AC000264B9A6104E0254A92698243234B9A613E
:100AD000704729B1214AD2690243204BDA6104E010
:100AE0001E4AD26982431D4BDA61704729B11B4A05
:100AF000D2680243194BDA6004E0184AD268824394
:100B0000164BDA60704729B1144A12690243134B3D
:100B10001A6104E0114A12698243104B1A6170474E
:100B200012494039086070470F49C86470470B4943
:100B3000C87170470948406A40F0807007494862B0
:100B4000704701460020054A92680A400AB1012018
:100B500000E0002070470149887270470010024091
:100B60000000FFF8FFFFF6FE000042428004424210
:100B700000127A0000093D0014000020240000202B
:100B800010B50446FB48844209D101218803FFF7D0
:100B9000ADFF00214FF48040FFF7A8FF32E0F64898
:100BA000844209D101214804FFF7ADFF00214FF431
:100BB0000030FFF7A8FF25E0F048844209D1012169
:100BC0008804FFF7A0FF00214FF48020FFF79BFF70
:100BD00018E0EB48844209D10121C804FFF793FFD4
:100BE00000214FF40020FFF78EFF0BE0E548844220
:100BF00008D101210805FFF786FF00214FF480107E
:100C0000FFF781FF10BD2DE9F04786B005460E467F
:100C10000024A24600BFA1460027B08900B100BF52
:100C20002F462C8A4CF6FF700440F08804432C8237
:100C3000AC894EF6F3100440B088318908437189BD
:100C400008430443AC81AC8A4FF6FF400440B089AE
:100C50000443AC8201A8FFF7C2FEC648874202D116
:100C6000DDF810A001E0DDF80CA0A88900F4004038
:100C700040B10AEBCA0000EB0A1031684900B0FB32
:100C8000F1F807E00AEBCA0000EB0A1031688900AE
:100C9000B0FBF1F86420B8FBF0F0040120096421F6
:100CA00001FB1089A88900F4004040B1322000EB1C
:100CB000C900B0FBF1F000F00700044308E0322067
:100CC00000EB09106421B0FBF1F000F00F000443C9
:100CD0002C8106B0BDE8F0874FF416510160002169
:100CE0008180C18001810C21418100218181704777
:100CF00010B502460020108A4FF2FF0318400B88FF
:100D00004C8823438C882343CC8823431843108288
:100D100010BD0021018041808180C180704721B1D8
:100D2000828942F40052828104E082894DF6FF7389
:100D30001A4082817047F0B5034600240026002542
:100D4000002040F66A17B94200D100BF1846C1F32F
:100D5000421401F01F06012707FA06F5012C01D104
:100D60000C3004E0022C01D1103000E014301AB134
:100D700007682F43076002E00768AF430760F0BDD4
:100D80001AB1838A0B43838202E0838A8B43838276
:100D90007047028A4FF6F0731A400282028A0A43B1
:100DA0000282704782894FF2FF731A4082818289E2
:100DB0000A438281704721B1828942F00202828116
:100DC00004E082894FF6FD731A4082817047028ADF
:100DD0004FF6DF731A400282028A0A43028270478A
:100DE00021B1028A42F48042028204E0028A4BF678
:100DF000FF731A4002827047C1F308028280704775
:100E000001468888C0F308007047818941F00101DC
:100E100081817047028BD2B20283028B42EA0122A7
:100E200002837047028B02F47F420283028B0A43E3
:100E30000283704721B1828A42F02002828204E05C
:100E4000828A4FF6DF731A408282704721B1828A0C
:100E500042F01002828204E0828A4FF6EF731A4059
:100E60008282704721B1828A42F00802828204E0C5
:100E7000828A4FF6F7731A408282704721B18289C5
:100E800042F40042828103E08289C2F30E02828131
:100E9000704721B1828A42F40062828204E0828A31
:100EA0004FF2FF731A4082827047828A4FF6FB73BB
:100EB0001A408282828A0A438282704721B1828AE2
:100EC00042F00202828204E0828A4FF6FD731A40E9
:100ED0008282704702460020B1F5007F00D100BF3A
:100EE00013880B400BB1012000E00020704701F493
:100EF0000072B2F5007F00D100BFCA430280704784
:100F000070B50246002400230025002040F66A1632
:100F1000B14200D100BFC1F3421501F01F03012609
:100F200006FA03F3012D02D19689334006E0022D23
:100F300002D1168A334001E0968A33400C12012612
:100F400006FA04F41688344013B10CB1012000E015
:100F5000002070BD10B50022002340F66A14A142A3
:100F600000D100BF0A1201249440A3B2DC430480E4
:100F700010BD00000038014000440040004800401F
:100F8000004C00400050004090B0FFF7B1F900F075
:100F90003FF84FF4A060FFF705FA00F098F800F072
:100FA00021F800F0E6FE0AE001AA06A90BA800F06D
:100FB000EFFE20B910220BA9014800F0DBF8F3E79F
:100FC00000380140704700BFFEE700BFFEE700BFEA
:100FD000FEE700BFFEE770477047704710B500F0AE
:100FE0004FF810BD08B501210820FFF765FD02206C
:100FF000ADF8000010208DF8030003208DF80200EA
:1010000069460248FFF79CFA08BD0000000C014049
:1010100030B5224800684FF47A72B0FBF2F1B1F1BA
:10102000807F01D301201DE021F07F40401E4FF062
:10103000E022506150170F22002807DA13071D0E17
:10104000174B00F00F04241F1D5503E013071C0E5F
:10105000144B1C5400BF00204FF0E0229061072089
:101060001061002008B100BFFEE730BD01B50E4998
:101070000098086000BF0C4800680028FBD108BD3C
:101080000948006820B108480068401E0649086009
:1010900006480068401C05490860704700000020B1
:1010A00018ED00E000E400E0280000202C00002003
:1010B00008B525208DF8000001208DF801008DF87D
:1010C00002008DF803006846FFF771F908BD00B50E
:1010D00085B001210420FFF7EFFC01218803FFF711
:1010E000EBFC4FF40070ADF8100018208DF81300E1
:1010F00003208DF8120004A95248FFF721FA4FF49B
:101100008060ADF8100004208DF8130004A94D484C
:10111000FFF716FA4FF4E13000900020ADF804001C
:10112000ADF80600ADF80800ADF80C000C20ADF8E5
:101130000A0069464448FFF766FDFFF7B9FF012240
:1011400040F225514048FFF7F6FD01213E48FFF7E8
:10115000E6FD05B000BD70B504460D4629462046A3
:10116000FFF74AFE00BF80212046FFF7B3FE0028AC
:10117000F9D070BD2DE9F04107460D461646002412
:1011800005E0295D3846FFF7E6FF601CC4B2B442B3
:10119000F7DB00BF40213846FFF79CFE0028F9D05E
:1011A000BDE8F08170B506460C46002500BF615DC4
:1011B0003046FFF7D0FF6D1C605D0028F7D100BFFF
:1011C00040213046FFF786FE0028F9D070BD2DE99A
:1011D000F04105460C46260AE7B231462846FFF79D
:1011E0000BFE00BF80212846FFF774FE0028F9D0CF
:1011F00039462846FFF700FE00BF80212846FFF74A
:1012000069FE0028F9D0BDE8F08170B504460D46AE
:10121000E1B20D48FFF7F0FD00BF80210A48FFF75B
:1012200059FE0028F9D0204670BD10B5044600BF15
:1012300020210548FFF74EFE0028F9D00248FFF7AD
:10124000DFFD10BD0008014000380140014605E007
:10125000002001E0421C90B24828FBDB0A1EA1F1ED
:10126000010399B2F4D1704730B50446002505E07A
:101270004FF47A70FFF7EAFF681CC5B2A542F7D3B6
:1012800030BD70B505460821F848FFF706FAC820BA
:10129000FFF7DCFF002608E06420FFF7D7FF3720C8
:1012A00000F02FFE0446701CC6B2AE4203DA122CC8
:1012B000F2D0152CF0D0122C01D0152C01D1002029
:1012C00070BD0220FCE710B52820FFF7BFFF082102
:1012D000E648FFF7E2F90220FFF7B8FF0821E348EC
:1012E000FFF7DDF90220FFF7B1FF0821DF48FFF724
:1012F000D4F90220FFF7AAFF4FF4FA70FFF7A6FF18
:101300000F21012000F014FE0220FFF79FFF3D2176
:10131000112000F00DFE1E212D2000F009FE0021FD
:101320002C2000F005FE8D212A2000F001FE3E2138
:101330002B2000F0FDFD4021152000F0F9FD10BD2F
:1013400010B5142000F0DDFD40F003042146142008
:1013500000F0EEFD10BD10B5142000F0D2FD20F01D
:1013600003042146142000F0E3FD10BD70B50446CF
:101370000821BE48FFF793F94FF4FA70FFF766FFB4
:101380000821BA48FFF789F94FF4FA70FFF75EFFBA
:10139000FFF7E1FF4FF4FA70FFF758FF412C58D1E7
:1013A0000821084600F0E6FD8021022000F0E2FD61
:1013B0003D21112000F0BCFD8621172000F0B8FD72
:1013C0005821262000F0B4FD4021152000F0B0FD8A
:1013D0000021122000F0ACFD0021132000F0A8FD38
:1013E00010210C2000F0A4FD372000F08AFD0546F6
:1013F0000021372000F09CFD5E21372000F098FD91
:101400004821262000F094FD8821172000F090FD4F
:101410001221292000F08CFDED21352000F088FDFF
:10142000A5213B2000F084FDAE21372000F080FD97
:1014300072213B2000F07CFDF021272000F078FD98
:101440003F21282000F074FD2946372000F070FD70
:1014500066E0422C64D10021082000F069FD802163
:10146000022000F087FD3F21112000F061FD852161
:10147000172000F05DFD5821262000F059FDF821CD
:10148000272000F055FD3F21282000F051FD2021AC
:10149000292000F04DFD0021362000F049FD0021FB
:1014A000152000F045FD13211E2000F041FD832191
:1014B000122000F03DFD8321132000F039FD0021B2
:1014C0000D2000F035FD372000F01BFD0546002102
:1014D000372000F02DFD5E21372000F029FD482146
:1014E000262000F025FD8821172000F021FD202175
:1014F000292000F01DFDED21352000F019FDA5216A
:101500003B2000F015FDAE21372000F011FD7221C7
:101510003B2000F00DFD2946372000F009FD00BFFB
:10152000FFF70EFF6420FFF791FE70BD10B5044673
:1015300000212B2000F0FCFC88212A2000F0F8FC80
:101540000120A040C1B22D2000F0F2FC0120A040FB
:10155000C0F307212C2000F0EBFC10BD70B5002675
:101560004FF4617500BF042000F0CBFC04466D1EF3
:1015700035B104F0010018B904EA06000028F2D0E1
:1015800070BD2DE9FF4F87B0074693469946DDF8B9
:101590005080002006900590002503900190009057
:1015A000082F12D003DC3FB1042F21D114E00C2FFF
:1015B00017D00E2F1CD103E000200190009019E0FD
:1015C000112001901020009014E030200190202084
:1015D0000090012006900DE05020019040200090E6
:1015E00008E071200190202000900120069001E089
:1015F000172700BF00BF172F7DD00C2F01D0042F5D
:1016000002D1BBF1000F03DC0C2FF5D0042FF3D077
:101610000021012000F08CFC022000F072FC00F0A0
:1016200080000490019A0498104340F001010220C8
:1016300000F07EFC7F21042000F07AFC7F21052051
:1016400000F076FC80210A2000F087FC0C2F03D0EC
:10165000042F01D00E2F60D15D46402D02DB4020CB
:10166000039000E00395002609E000000008014017
:101670000898815D092000F05BFC701C86B203981D
:101680008642F5DB0398281AC5B23DB1042108460D
:1016900000F04EFC0421022000F05FFCF9B20120B2
:1016A00000F046FC0C2F03D180210D2000F055FCEA
:1016B00024E0FFF753FF302D02DD3020039000E0DF
:1016C0000395002609E0ABEB050082190898815CC0
:1016D000092000F02DFC701C86B203988642F2DBD4
:1016E0000421084600F024FC0398281AC5B22DB93D
:1016F0000421022000E054E100F03CFC002DD8D190
:10170000FFF72CFF042000F0FCFB044604F040002F
:1017100018B14021042000F00BFC082F03D1402118
:101720000C2000F01AFC00250821042000F000FC29
:101730000821022000F011FCFFF710FF29E0FFF75D
:101740000DFF042000F0DDFB044604F00800D8B1D2
:1017500004F02000C0B905F13000FF2800DD19E0D9
:10176000002607E0092000F0CCFBA91909F80100C8
:10177000701C86B2302EF5DB0821042000F0D8FB67
:1017800005F13000C5B204E00821022000F0F2FBB0
:1017900000E0D4E700BF042000F0B3FB044621467C
:1017A000042000F0C5FB04F0010010B102200290FB
:1017B000DEE0062000F0A5FB05907D200290009859
:1017C0002040002870D0019820400028FAD004F072
:1017D0000200B0BB0020029006980028E8D00A2042
:1017E00000F08FFB00F07F040C2000F08AFB00F07B
:1017F000070A2819FF2802DD7D200290B8E0BAF11F
:10180000000F06D02CB1601E0AEBC000C8F8000023
:1018100002E0E000C8F80000D8F8000000EBC500C6
:10182000C8F8000004B90124002607E0092000F0F0
:1018300068FBA91909F80100701C86B2A642F5DB05
:1018400096E0FFE7059800F0080070B30E2000F066
:1018500058FB00F0200040BB18200290069880B38F
:101860000A2000F04EFB00F07F040C2000F049FB42
:1018700000F0070A2819FF2823DCBAF1000F06D070
:101880002CB1601E0AEBC000C8F8000002E0E000C6
:10189000C8F80000D8F8000000EBC500C8F8000048
:1018A00004B9012400260AE060E01DE0092000F0F0
:1018B00028FBA919491C09F80100701C86B2A64230
:1018C000F4DB0E2000F01DFB00F01F0089F8000083
:1018D00099F8000010B9202089F8000099F800005C
:1018E000401E89F8000043E0059800F0080028B188
:1018F0000E2000F006FB00F0200098BB059800F0D9
:10190000010010B11520029032E0059800F00600A9
:1019100048B3059800F0010028BB0A2000F0F1FA56
:1019200000F07F040C2000F0ECFA00F0070A281900
:10193000FF2802DD7D20029012E0BAF1000F06D0F0
:101940002CB1601E0AEBC000C8F8000002E0E00005
:10195000C8F80000D8F8000000EBC500C8F8000087
:101960002320029004E02320029001E07D200290D9
:1019700080210C2000F0F1FA7F21042000F0D8FA39
:101980007F21052000F0D4FA7F21022000F0F2FA36
:101990007F21032000F0EEFA0021012000F0C8FAB8
:1019A00001E07F20029002980BB0BDE8F08FF0B507
:1019B00087B006460C460821084600F0DBFA0721EE
:1019C0000D2000F0B5FA0321142000F0C6FA3720EC
:1019D00000F097FA0746122F01D0152F02D10320ED
:1019E000FFF742FC8DF8046006A801AB012201A9B3
:1019F00000900C20FFF7C5FD05464DB9069810284C
:101A000006D19DF8040020709DF80500607000E08C
:101A10000225284607B0F0BD70B530260821F948E8
:101A2000FEF73BFE4FF4FA70FFF710FC4021152043
:101A300000F07EFA1421042000F07AFA83211420A9
:101A400000F076FA2621092000F072FA0C2101201C
:101A500000F06EFA87210D2000F06AFA0F2500BF12
:101A6000042000F04EFA0446681EC5B21DB104EA17
:101A700006000028F4D00DB9022070BD0020FCE75C
:101A8000F0B587B0054600270821084600F072FA35
:101A900000210D2000F04CFA80210E2000F06AFA9F
:101AA00093208DF8040020208DF8050006A801ABD6
:101AB000022201A900900C20FFF763FD064686B9BB
:101AC000002407E001A8005D285501A8005D4740FB
:101AD000601CC4B2042CF5DB01A8005DB84200D044
:101AE000022680210E2000F038FA304607B0F0BD03
:101AF0002DE9F0410746884615460421052000F0EF
:101B000039FA0021012000F013FA80210A2000F0A8
:101B100024FA002405E0395D092000F009FA601C70
:101B2000C4B24445F7DB0321012000F001FAFF2491
:101B300000BF052000F0E5F90646601EC4B21CB1E6
:101B400006F004000028F4D0222000F0DAF9287012
:101B5000212000F0D6F96870BDE8F08170B588B03A
:101B6000054693208DF8080070208DF809000020AC
:101B70008DF80E0000240BE0295D02AAA01C115470
:101B80009DF80E00295D48408DF80E00601CC4B21F
:101B9000042CF1DB0DF10F02072102A8FFF7A8FFCB
:101BA0000821084600F0E6F907A802AB092202A9BD
:101BB00000900C20FFF7E5FC064626B90798182888
:101BC00001D1002600E00226304608B070BD2DE9A4
:101BD000F04387B006460F46904699468DF804605C
:101BE0008DF80570002406E018F8041001AAA01C66
:101BF0001154601CC4B2062CF6DB002407E019F86F
:101C0000041001AA04F108001154601CC4B2062C8F
:101C1000F5DB06A801AB0C2201A900900E20FFF70E
:101C2000B0FC05462DB9082000F06BF900F0080063
:101C300000B90425284607B0BDE8F083F0B587B0A9
:101C400005460E4630208DF804008DF805500DF144
:101C50000602022101A8FFF74BFF06A801AB0422F0
:101C600001A900900C20FFF78CFC074667B9069885
:101C7000902809D1002404E001A8005D3055601CC3
:101C8000C4B2102CF8DB00E01227384607B0F0BDD4
:101C9000F0B587B006460F46A0208DF804008DF8F9
:101CA00005600DF10602022101A8FFF721FF06A839
:101CB00001AB042201A900900C20FFF762FC05464D
:101CC00045B90698042805D19DF8040000F00F00DE
:101CD0000A2800D002250DBB002404E0385D01A9CC
:101CE0000855601CC4B2102CF8DB05AA102101A80D
:101CF000FFF7FEFE06A801AB122201A900900C20FE
:101D0000FFF73FFC054645B90698042805D19DF824
:101D1000040000F00F000A2800D00F25284607B065
:101D2000F0BD10B50821084600F024F93D2111202E
:101D300000F0FEF88621172000F0FAF87F21262017
:101D400000F0F6F81E212D2000F0F2F800212C20E2
:101D500000F0EEF88D212A2000F0EAF83E212B2039
:101D600000F0E6F84FF4C870FFF770FAFFF7E8FAF2
:101D700010BD10B500F056F8FFF7A5FAFFF7EBFA23
:101D80000120FFF771FAFFF7DBFAFFF7CAFF10BD7A
:101D90002DE9FE4304460E46154600271AA103C945
:101DA000CDE9000102A95220FFF701FEB0F10008C1
:101DB00004D002A95220FFF7FAFD8046B8F1000FC7
:101DC0002CD102A8FFF75CFED8B902A8FFF7C6FE27
:101DD000F8B902AB6A463F216020FFF7F8FEC8B9A8
:101DE00021463C20FFF72AFF90B931463D20FFF7FE
:101DF00025FF68B929463E20FFF720FF40B900279C
:101E00000DE009E000080140FFFFFFFFFFFF0000B9
:101E1000012704E0022702E0032700E004273846F8
:101E2000BDE8FE8308B501210C20FEF745FE082021
:101E3000ADF8000010208DF8030003208DF802009B
:101E400069465348FEF77CFB1020ADF80000694658
:101E50004F48FEF775FBA020ADF8000010208DF86C
:101E6000030003208DF8020069464948FEF768FB2D
:101E70004020ADF8000048208DF8030003208DF8C5
:101E8000020069464248FEF75BFB08BD70B5044698
:101E9000002517E004F0800020B180213C48FEF7C7
:101EA000FCFB03E080213A48FEF7F9FB202138488B
:101EB000FEF7F3FB20213648FEF7F1FB6006040E27
:101EC000681CC5B2082DE5DB002070BD70B500248C
:101ED000002512E06006040E20212D48FEF7DDFBF0
:101EE00040212B48FEF7BFFB08B144F0010420213C
:101EF0002748FEF7D4FB681CC5B2082DEADB204654
:101F000070BD70B504467E2000EA440040F08005B4
:101F100010211F48FEF7C3FB2846FFF7B7FFFFF766
:101F2000D5FF064610211A48FEF7B7FB304670BDB4
:101F300070B504460D467E2000EA44061021144880
:101F4000FEF7ADFB3046FFF7A1FF2846FFF79EFFE7
:101F500010210F48FEF7A1FB70BD70B505460C4679
:101F60002846FFF7CEFF064646EA04012846FFF75B
:101F7000DFFF70BD70B505460C462846FFF7C1FF70
:101F8000064626EA04012846FFF7D2FF70BD00008E
:101F900000080140064C074D06E0E06840F00103F0
:101FA00094E8070098471034AC42F6D3FEF7C4F823
:101FB000D81F0008F81F000802E008C8121F08C157
:101FC000002AFAD170477047002001E001C1121FBA
:101FD000002AFBD170470000F81F00080000002015
:101FE00030000000B81F0008282000083000002042
:101FF00000040000C81F0008006CDC0200000000A4
:1020000000000000010203040607080900000000A8
:10201000010203040102030406070809020406087A
:082020000000000000000000B8
:0400000508000131BD
:00000001FF
